:10000000BCC000001DC20000EFC10000D2C0000053
:10001000D0C00000CEC00000CCC000003BC2000039
:10002000C8C00000C6C000000C94C40E0C948F0F12
:10003000C0C00000BEC00000BCC00000BAC00000CC
:10004000B8C0000059C10000B4C00000B2C0000038
:10005000B0C0000017C10000ACC00000AAC0000082
:10006000A8C00000F0C2000019C30000A2C0000038
:10007000A0C000009EC000009CC000009AC000000C
:1000800060C1000096C0000094C0000092C0000053
:1000900090C000008EC000008CC000008AC000002C
:1000A00074C100007DC1000084C00000554152545D
:1000B000204672616D65204572726F723A2000555C
:1000C000415254204F76657272756E204572726F80
:1000D000723A2000427566666572206F76657266B8
:1000E0006C6F77206572726F723A200020034D00AA
:1000F0006F006E006B00650079007000720069008F
:100100006E007400200044004C0050000000040306
:100110005000610075006C00200042006F006D000F
:100120006B00650000000403090409023E0002019F
:1001300000C0320904000001020201000524001081
:1001400001042402060524060001070582030800B5
:10015000FF09040100020A00000007050402100064
:1001600005070583021000051201100102000008B6
:10017000EB03442001000102DC0111241FBECFEF7C
:10018000DAE0DEBFCDBF13E0A0E0B1E0EEE1F7E2E0
:1001900002C005900D92AC3CB107D9F724E0ACEC5D
:1001A000B3E001C01D92A23DB207E1F703D00C9469
:1001B0008D139BC1859A8D9AA9D178940E94570B73
:1001C00024D235D2C8E027D235D22FEF81EE94E089
:1001D000215080409040E1F700C00000C15099F7E5
:1001E00017D225D223D380911B010E94060980914A
:1001F000CE03882309F442C01092CE03809191006F
:1002000080FF809181008091810080FD1EC08091DF
:10021000910080FD1AC08091C1008970B1F4809175
:10022000D0039091D10301969093D1038093D00392
:10023000883E934051F40E94B80B811106C0109281
:10024000D1031092D0030E94C80B0E94920B882306
:10025000A9F08FEF91EE24E0815090402040E1F72B
:1002600000C0000080915F04811105C085E891E025
:100270000E94D80B03C085E891E09BD281E00E94E8
:10028000390CB0CF1F920F920FB60F9211242F93FB
:100290003F934F935F936F938F939F932091CC03E2
:1002A0003091CD0340910001509101016AE0649FBB
:1002B000C001659F900D11242817390741F481E092
:1002C0008093CE031092CD031092CC0309C080918D
:1002D000CC039091CD0301969093CD038093CC03F2
:1002E0009F918F916F915F914F913F912F910F90BF
:1002F0000FBE0F901F9018951F920F920FB60F927E
:1003000011242F933F934F935F936F937F938F931A
:100310009F93AF93BF93EF93FF931D990E940C0A95
:10032000FF91EF91BF91AF919F918F917F916F91CD
:100330005F914F913F912F910F900FBE0F901F90A3
:1003400018951F920F920FB60F9211242F933F937F
:100350004F935F936F937F938F939F93AF93BF93CD
:10036000EF93FF93369993D5FF91EF91BF91AF91A2
:100370009F918F917F916F915F914F913F912F91BD
:100380000F900FBE0F901F9018951F920F920FB6EF
:100390000F9211245F980F900FBE0F901F90189529
:1003A0001F920F920FB60F9211242F933F934F93EA
:1003B0005F936F937F938F939F93AF93BF93EF93CD
:1003C000FF930E94220BFF91EF91BF91AF919F91FC
:1003D0008F917F916F915F914F913F912F910F90EE
:1003E0000FBE0F901F9018951F920F920FB60F928D
:1003F00011242F933F934F935F936F937F938F932A
:100400009F93AF93BF93EF93FF9302D128D6809130
:100410006C0490916D0490936B0480936A04FF9137
:10042000EF91BF91AF919F918F917F916F915F916C
:100430004F913F912F910F900FBE0F901F901895E5
:100440001F920F920FB60F9211242F933F934F9349
:100450005F936F937F938F939F93AF93BF93EF932C
:10046000FF93E5D003D61092810410926D04109290
:100470006C04FF91EF91BF91AF919F918F917F910C
:100480006F915F914F913F912F910F900FBE0F9001
:100490001F9018951F920F920FB60F9211242F9351
:1004A0003F934F935F936F937F938F939F93AF93FC
:1004B000BF93EF93FF93BBD06AD4882329F091D4E4
:1004C000811102C081D489D4FF91EF91BF91AF9186
:1004D0009F918F917F916F915F914F913F912F915C
:1004E0000F900FBE0F901F9018951F920F920FB68E
:1004F0000F92112490D09ED02FEF80E792E02150F0
:1005000080409040E1F700C00000F4CF84B7877FBF
:1005100084BF88E10FB6F894809360001092600069
:100520000FBE859A8D98849A8C98209A289A559A0D
:100530005D9A269A2E98879A8F98249A2C9A259AB3
:100540002D98869A8E98549A5C9A3E9A4698579A15
:10055000599A589A769AE9E6F0E080818F60808314
:10056000EAE6F0E08081806380838DB383648DBB95
:1005700084B5826084BD85B5826085BD88EC87BD09
:10058000EEE6F0E0808182608083E0E8F0E0808148
:1005900080648083E1E8F0E0808188608083EFE61A
:1005A000F0E0808182608083E0E9F0E08081806417
:1005B0008083E1E9F0E0808188608083E1E7F0E01A
:1005C000808182608083E2E7F0E0808184688083BC
:1005D00087E690E08DD0E8EDF0E080818F7E80832B
:1005E0000C94A70E2FB7F8949093890080938800FD
:1005F0002FBF08952FB7F894909399008093980097
:100600002FBF08958093D200089528988D9A089559
:10061000289A8D98089585B191E0892785B981B38D
:1006200090E2892781BB08955D988C9A08955D9A20
:100630008C9808958BB190E289278BB981B390E1B2
:10064000892781BB08951F920F920FB60F92112434
:100650002F938F939F93EF93FF938091C800909176
:10066000CE008871E091D703EF5FEF712091D60340
:10067000E21739F0E093D703F0E0E652FC4F9083A5
:1006800001C082E08093D503FF91EF919F918F91FC
:100690002F910F900FBE0F901F9018951F920F92E1
:1006A0000FB60F9211248F939F93EF93FF93909126
:1006B000D9038091D803981769F0E091D803EF5FD0
:1006C000EF71E093D803F0E0E650FC4F8081809317
:1006D000CE0005C08091C9008F7D8093C900FF9135
:1006E000EF919F918F910F900FBE0F901F901895D3
:1006F0001092D9031092D8031092D7031092D60308
:1007000097FF04C022E02093C8009F779093CD000C
:100710008093CC0088E98093C90086E08093CA006A
:1007200008959091D7038091D603981789F0E091AE
:10073000D603EF5FEF71E093D603F0E0E652FC4F93
:1007400080819091D503392F20E0280F311D02C000
:1007500020E031E0C90108959091D9039F5F9F7116
:100760002091D8039217E1F3E92FF0E0E650FC4F17
:1007700080839093D9038091C90080628093C900DF
:100780000895CF93DF93EC0101C0E6DF89918111D9
:10079000FCCFDF91CF910895CF93DF93EC0101C09F
:1007A000DBDFFE01219684918111FACFDF91CF9199
:1007B0000895E7CFBF92CF92DF92EF92FF920F930F
:1007C0001F93CF93DF937C01B12C062F10E00150D3
:1007D00011091DC0A6DFEC0190FF05C0F701EC0D6B
:1007E000FD1D108219C093FF03C08CEA90E009C080
:1007F00092FF03C08FEB90E004C091FF03C084ED33
:1008000090E0CADFF701EB0DF11DC083B394CB2C50
:10081000D12CC016D106F4F2DF91CF911F910F9128
:10082000FF90EF90DF90CF90BF9008950F931F93AC
:10083000CF93DF932FEF81EE94E0215080409040E2
:10084000E1F700C000006EE187E994E0E8D780910D
:100850009704811108C06EE187E994E0ABDF81E085
:1008600080935F0402C010925F046BE871E087E937
:1008700094E00E943B13009759F480915F0481112A
:1008800004C08FE891E094D703C08FE891E091DF36
:1008900064E971E087E994E00E943B13009759F402
:1008A00080915F04811104C089E991E081D703C080
:1008B00089E991E07EDF6FE971E087E994E00E94C9
:1008C0003B130097A9F460917D0480911C018FD2A5
:1008D0008FE39CE90197F1F700C0000080915F046D
:1008E000811103C084EA91E018C084EA91E045C216
:1008F0006AEA71E087E994E00E943B130097A9F44B
:1009000001D48FE39CE90197F1F700C000008091CA
:100910005F04811107C084EB91E0DF91CF911F91BB
:100920000F9146C784EB91E028C26FEB71E087E935
:1009300094E00E943B13009759F409D480915F041E
:10094000811103C088EC91E0E8CF88EC91E015C2FA
:1009500062ED71E087E994E00E943B13009759F43F
:100960001FD480915F04811103C08EED91E0D5CF3B
:100970008EED91E002C26BEE71E087E994E00E9497
:100980003B13009759F4F2D380915F04811103C0A7
:1009900083EF91E0C2CF83EF91E0EFC16CEF71E0A4
:1009A00087E994E00E943B13009759F46ED680913A
:1009B0005F04811103C088E092E0AFCF88E092E04D
:1009C000DCC165E172E087E994E00E943B13009787
:1009D00059F45ED680915F04811103C082E292E0F7
:1009E0009CCF82E292E0C9C160E372E087E994E0C3
:1009F0000E943B13009759F44ED680915F048111F9
:100A000003C08EE392E089CF8EE392E0B6C16DE43D
:100A100072E087E994E00E943B13009759F441D6B5
:100A200080915F04811103C08CE592E076CF8CE564
:100A300092E0A3C16CE672E087E994E00E943B1368
:100A4000009759F489D680915F04811103C087E72C
:100A500092E063CF87E792E090C163E872E087E9B4
:100A600094E00E943B13009709F48CC16EE872E099
:100A700087E994E00E943B13009709F483C18091B9
:100A80009704882309F47EC168E972E087E994E05D
:100A90000E9438139093B6048093B50468E972E01D
:100AA00080E090E00E943813EC01909396048093CC
:100AB00095040091B5041091B6046AE972E0C8018A
:100AC0000E943B13009791F4CE010E941B13809368
:100AD000B7049093B804EED280915F04811103C0F3
:100AE00085EA92E01ACF85EA92E047C161EB72E0B5
:100AF000C8010E943B13009791F4CE010E941B1382
:100B00008093B7049093B804E9D280915F04811177
:100B100003C080EC92E001CF80EC92E02EC160ED4A
:100B200072E0C8010E943B13009791F4CE010E942D
:100B30001B138093B7049093B80471D280915F0423
:100B4000811103C08AED92E0E8CE8AED92E015C1F2
:100B500065EE72E0C8010E943B13009791F4CE014C
:100B60000E941B139093B8048093B70436D28091EF
:100B70005F04811103C08FEE92E0CFCE8FEE92E042
:100B8000FCC06AEF72E0C8010E943B13009791F429
:100B9000CE010E941B139093B8048093B70411D226
:100BA00080915F04811103C082E093E0B6CE82E0C1
:100BB00093E0E3C06BE073E0C8010E943B13009731
:100BC00091F4CE010E941B138093B7049093B80454
:100BD00055D280915F04811103C086E193E09DCEE0
:100BE00086E193E0CAC062E273E0C8010E943B1351
:100BF000009791F4CE010E941B139093B804809348
:100C0000B70450D280915F04811103C08BE293E05E
:100C100084CE8BE293E0B1C065E373E0C8010E942B
:100C20003B13009791F4CE010E941B139093B804DC
:100C30008093B7043CD280915F04811103C082E4A9
:100C400093E06BCE82E493E098C060E573E0C80166
:100C50000E943B13009791F4CE010E941B139093C6
:100C6000B8048093B704B6D280915F04811103C0A9
:100C70008AE593E052CE8AE593E07FC065E673E0B3
:100C8000C8010E943B130097A9F4CE010E941B13D8
:100C90009093B8048093B7048230910508F46BD523
:100CA00080915F04811103C082E793E036CE82E732
:100CB00093E063C060E873E0C8010E943B130097B3
:100CC00091F4CE010E941B139093B8048093B70453
:100CD00055D580915F04811103C086E893E01DCE55
:100CE00086E893E04AC06DE873E0C8010E943B13B8
:100CF000009791F4CE010E941B139093B804809347
:100D0000B70441D580915F04811103C085E993E068
:100D100004CE85E993E031C06EE973E0C8010E941A
:100D20003B13009791F4CE010E941B138093B704EC
:100D30009093B804A4D480915F04811103C089EA20
:100D400093E0EBCD89EA93E018C065EB73E0C8014E
:100D50000E943B130097B1F4CE010E941B138093B5
:100D6000B7049093B8048ED480915F04811103C0BE
:100D700080EC93E0D2CD80EC93E0DF91CF911F9196
:100D80000F9117CDDF91CF911F910F910895209171
:100D9000910020FF06C02091910021FB882780F957
:100DA000089580E090E008958E9A2FEF80E792E01A
:100DB000215080409040E1F700C00000E1E9F0E000
:100DC0008081836080830895E1E9F0E080818D7FF8
:100DD000808380818E7F808308955C9808955C9ADB
:100DE00008958BB18295817091E08927089522E65C
:100DF000629FC001961B11248653994F6AE070E0F0
:100E00000E94081370938E0460938D0420918D04CA
:100E100030918E048CE791E0821B930B609111015D
:100E200070E00E94F4127093C4046093C304809134
:100E30008B0490918C04660F771F8617970738F400
:100E40009C01369527953093C4042093C3042091C8
:100E5000C3043091C4043093660420936504821B5C
:100E6000930B90936404809363048CE791E09093D8
:100E70008E0480938D0480918D0490918E04BADB52
:100E80001092710410927004A8DF8EDFBECBA9DF30
:100E90002091650430916604882309F44CC0809148
:100EA0007004909171048217930788F480918D04E7
:100EB00090918E0420911101821B910990938E04D0
:100EC00080938D0480918D0490918E0493DB20910A
:100ED00070043091710480916304909164048217CE
:100EE000930788F480918D0490918E0420911101D4
:100EF000820F911D90938E0480938D0480918D04B8
:100F000090918E0477DB809170049091710401962A
:100F1000909371048093700420918B0430918C0421
:100F20008217930709F04CC07FDB72DB10927104CB
:100F30001092700454CF80917004909171048217C4
:100F4000930788F480918D0490918E042091110173
:100F5000821B910990938E0480938D0480918D045F
:100F600090918E0447DB2091700430917104809140
:100F70006304909164048217930788F480918D0430
:100F800090918E0420911101820F911D90938E04F7
:100F900080938D0480918D0490918E042BDB809141
:100FA0007004909171040196909371048093700481
:100FB00020918B0430918C048217930709F437CB6E
:100FC00008959C01369527953093100120930F01C9
:100FD00090930E0180930D01089520910F0130919F
:100FE00010018217930728F080910D0190910E0156
:100FF0000CC020916104309162048217930728F499
:1010000030938C0420938B0404C090938C048093C1
:101010008B046DE080911C0190911D01C0C38A304A
:1010200010F08AE003C0811101C081E080937D044B
:101030006EE080917D0490E0B2C38F9A2FEF80E73D
:1010400092E0215080409040E1F700C00000E1E8CC
:10105000F0E080818160808308952C9808958F98B6
:10106000E1E8F0E080818E7F80830895E1E8F0E0A0
:1010700080818E7F808308952C9A0895843010F0AB
:1010800084E003C0811101C081E080931B0161E114
:1010900080911B0190E083D360911B0180E090E080
:1010A0000C947B1390930C0180930B010895809313
:1010B0000A010895823310F082E303C0811101C058
:1010C00081E080931A0162E180911A0190E067D378
:1010D00060911A0182E090E00C947B13823310F04F
:1010E00082E303C0811101C081E08093190163E1B3
:1010F0008091190190E053D36091190181E090E053
:101100000C947B13489B04C081E08093680408958D
:101110008091810481110DC081E08093810410923F
:101120006B0410926A0480916A0490916B0464E1EC
:1011300036C381E0809369041092810410926D049B
:1011400010926C0410926B0410926A0408958091BE
:10115000810080FD07C080E49CE990936B0480933C
:101160006A04089581E080936904089580916A0477
:1011700090916B0420911A0130E0820F931F81340B
:101180009C4918F080E49CE906C080916A04909123
:101190006B04820F931F90936B0480936A040895ED
:1011A00080916A0490916B042091190130E0820FC4
:1011B000931F81349C4918F080E49CE906C080911B
:1011C0006A0490916B04820F931F90936B04809339
:1011D0006A04089540916A0450916B049C01480F81
:1011E000591F41345C4918F080E49CE90AC08091A1
:1011F0006A0490916B0480916A0490916B04820F51
:10120000931F90936B0480936A04089590918100DA
:1012100090FD26C043EC55EF849F9001859F300DD3
:101220001124C9018254964D9093070180930601C1
:101230008091060190910701883E934034F488EE36
:1012400093E0909307018093060181E89FE19093DA
:101250001801809317018091170190911801C2D94C
:1012600020916C0430916D0480916A0490916B041C
:101270002817390708F04BC08091810080FD47C0D6
:101280004999C9C020916A0430916B0480916C0423
:1012900090916D04281B390B3093C2042093C10434
:1012A000809117019091180140910601509107011A
:1012B000841B950B60910401709105010E94F4124A
:1012C000CB01880F991F2817390728F07093BA04AB
:1012D0006093B90407C0C901969587959093BA04A5
:1012E0008093B9048091B9049091BA049093C0049A
:1012F0008093BF04281B390B3093BE042093BD0498
:101300001092BC041092BB0480D9A7DE7FC020914C
:101310006C0430916D0480916A0490916B04821783
:10132000930708F045C08091810080FD41C0489935
:1013300072C020916C0430916D0480916A04909188
:101340006B04281B390B3093C2042093C104809195
:101350001701909118014091060150910701841BDB
:10136000950B60910401709105010E94F412CB016C
:10137000880F991F2817390728F07093BA046093D3
:10138000B90407C0C901969587959093BA048093D4
:10139000B9048091B9049091BA049093C0048093E9
:1013A000BF04281B390B3093BE042093BD0428C012
:1013B00080918104882379F18091810080FD2BC088
:1013C000489925C08091170190911801209106013C
:1013D00030910701821B930B60910401709105010C
:1013E0000E94F4127093BA046093B9047093C0041D
:1013F0006093BF048FEF9FEF9093BE048093BD0472
:101400001092BC041092BB040FD936DE16CE109297
:101410006D0410926C04089590910A012C9976C085
:1014200080916E048F5F80936E048913F2C0809167
:10143000BB049091BC0401969093BC048093BB04C0
:101440002091BB043091BC048091BF049091C004F2
:101450002817390798F4809117019091180120916D
:10146000040130910501821B930B90931801809326
:1014700017018091170190911801B4D82091BB04F5
:101480003091BC048091BD049091BE0482179307F3
:1014900098F48091170190911801209104013091E6
:1014A0000501820F931F909318018093170180917B
:1014B00017019091180196D810926E0480916C04D7
:1014C00090916D04019690936D0480936C0420912B
:1014D0006C0430916D0480916A0490916B0428171C
:1014E000390721F4A4D894D8C1DD93C020916C04AD
:1014F00030916D0480916A0490916B048217930778
:1015000008F087C091D8B8DD46D183C080916E04C1
:101510008F5F80936E0489137CC08091BB0490918F
:10152000BC0401969093BC048093BB042091BB043F
:101530003091BC048091BF049091C00428173907F2
:1015400098F4809117019091180120910401309135
:101550000501821B930B90931801809317018091D2
:101560001701909118013ED82091BB043091BC0422
:101570008091BD049091BE0482179307B8F48091C6
:101580008104811113C0809117019091180120915D
:10159000040130910501820F931F909318018093ED
:1015A000170180911701909118011CD88091810436
:1015B00010926E04882351F080916C0490916D0418
:1015C000019790936D0480936C0423C080916C0408
:1015D00090916D04019790936D0480936C04209119
:1015E0006C0430916D0480916A0490916B0428170B
:1015F000390709F477CF20916C0430916D04809104
:101600006A0490916B042817390718F40E940503A7
:1016100024DD809169048823A1F00E94080307D883
:1016200025DD1092690480916C0490916D04909373
:101630006B0480936A0480916A0490916B0464E166
:10164000AEC0089580916004982F9F5F90936004CE
:101650008A3019F45F9A109260040895982F91507F
:101660009A3060F42DE7829FC00111248E519B4F68
:101670006AE070E0B9D7862F0C9402030895809336
:101680000301089580930201089580910301E6CF3C
:1016900080910201E3CFE1ECF0E0808188608083FB
:1016A0000895E1ECF0E08081807F8083089586E0FA
:1016B00080937D0483E090E090931D0180931C0152
:1016C0001092810410926D0410926C0480916C044D
:1016D00090916D0490936B0480936A0480E090E095
:1016E0000E94731380931B016DE083E090E057D05C
:1016F0006EE080917D0490E052D061E180911B0109
:1017000090E04DD062E180911A0190E048D063E111
:101710008091190190E043D080916C0490916D0408
:1017200064E13DC08091810080FD0EC080919100F8
:1017300080FD0AC08091680410926804882339F003
:1017400081E08093140105C081E0809368041092C9
:1017500014018091140108952E9A2FEF80E792E0F2
:10176000215080409040E1F700C000002E9808957D
:1017700080916704089580936704089590931301FE
:101780008093120108959093160180931501089596
:101790008E988F98089581E0809372040895E62FC3
:1017A000F0E0EE0FFF1FEA5DFE4F91838083F3CFE1
:1017B000CF93DF931F92CDB7DEB7BC018AE691E0ED
:1017C00094D58430B1F489830E940B039AE69A95EC
:1017D000F1F700C00E940B03E5E3EA95F1F7000082
:1017E0000E940B03FAE6FA95F1F700C00E940B0382
:1017F0000BC081110AC089830E941A039AE69A9548
:10180000F1F700C00E941A0389810F90DF91CF91F8
:1018100008958AE691E0CFC58AE691E0FCC5DF92A3
:10182000EF92FF920F931F93CF93DF938C01D12CF4
:10183000C62FD0E0219707C07801E80EF91EECDF33
:10184000F7018083D394E5DF892B29F4F801ED0DAE
:10185000F11D108206C08D2D90E08C179D0764F35A
:10186000F5CFDF91CF911F910F91FF90EF90DF9017
:101870000895811103C08AE691E0CDD58AE691E012
:1018800084D5F2C484E08D98E7ECF0E03197F1F76D
:1018900000C000008D9A8150B1F7089508958AE63E
:1018A00091E0FEC48AE691E0EEC5292F332722306D
:1018B000310539F02330310549F02130310521F16E
:1018C00028C0EEE3F0E08AE291E027C0992781305A
:1018D000910561F08230910581F0892BD1F4E6E227
:1018E000F1E0E491F0E086E291E017C0EEE0F1E093
:1018F000E491F0E08EE091E010C0ECEEF0E0E491D5
:10190000F0E08CEE90E009C0E2E1F0E088E691E0E2
:1019100004C0E0E0F0E080E090E0DA018D939C9379
:10192000CF010895BF92CF92DF92EF92FF920F9373
:101930001F93CF93DF937C018B01EA0196D1B82EE0
:10194000811132C0209731F028813981021B130B9D
:10195000E20EF31EC12CD12C22C08091E80085FD3F
:1019600014C08091E8008E778093E800209749F0BA
:10197000888199818C0D9D1D9983888325E0B22EE5
:1019800013C073D1882359F00EC0F70181917F01F4
:101990008093F10001501109FFEFCF1ADF0A011502
:1019A0001105D9F601C0B82E8B2DDF91CF911F9173
:1019B0000F91FF90EF90DF90CF90BF9008954091EE
:1019C000D0045091D1044617570748F061157105AE
:1019D00039F44091E8004E774093E80001C0BA0125
:1019E000FC0140E033C08091C904882309F442C05F
:1019F000853009F441C08091E80083FD39C08091B1
:101A0000E80082FD2FC08091E80080FF1FC0909108
:101A1000F3008091F200392F20E0A901482BCA0180
:101A200006C041914093F100615071090196611522
:101A3000710519F088309105A0F341E0089709F08D
:101A400040E08091E8008E778093E8006115710591
:101A500051F64111C8CF06C08091C904882351F0C6
:101A6000853051F08091E80082FFF6CF80E0089544
:101A700081E0089582E0089583E008954091D004C4
:101A80005091D1044617570748F06115710539F494
:101A90004091E8004E774093E80001C0BA01FC0194
:101AA00040E034C08091C904882309F443C08530E4
:101AB00009F442C08091E80083FD3AC08091E800BB
:101AC00082FD30C08091E80080FF20C09091F3003B
:101AD0008091F200392F20E0A901482BCA0107C0EC
:101AE00044914093F100319661507109019661155E
:101AF000710519F08830910598F341E0089709F0D5
:101B000040E08091E8008E778093E80061157105D0
:101B100049F64111C7CF06C08091C904882351F00E
:101B2000853051F08091E80082FFF6CF80E0089583
:101B300081E0089582E0089583E00895982F2CC0F5
:101B40009093E900981739F07091EC002091ED0026
:101B50005091F00003C0242F762F50E021FD02C0E9
:101B60009F5F1AC03091EB003E7F3093EB003091C5
:101B7000ED003D7F3093ED003091EB00316030930C
:101B8000EB007093EC002093ED005093F000209157
:101B9000EE0027FDE5CF07C0973090F28F7080935D
:101BA000E90081E0089580E008950F931F93CF939B
:101BB000DF93062FEC0110E02FC09881911103C034
:101BC0001F5F259629C02C81E981FA817B81892FAD
:101BD0008F70873010F080E022C0223010F056E085
:101BE00001C052E028E030E040E003C04F5F220F28
:101BF000331F2E173F07D0F34295407F452B692FA7
:101C0000661F6627661F90E4799F90011124622B5E
:101C100095DF8111D5CFDFCF1013CFCF81E0DF91DA
:101C2000CF911F910F9108958091CA0487FD05C03F
:101C30008091E80080FF0EC012C08091E80082FD14
:101C400005C08091C9048111F8CF08958091E80002
:101C50008B7708C08091C9048111EACF08958091E3
:101C6000E8008E778093E80008958091E4009091D9
:101C7000E50045E62091EC0020FD1FC023C0209127
:101C8000C904222391F0253091F02091EB0025FD2D
:101C900010C02091E4003091E5002817390751F376
:101CA0004150C90139F784E0089582E0089583E046
:101CB000089581E0089580E008952091E80020FFD4
:101CC000DECFF9CF2091E80022FFD9CFF4CF0F93D8
:101CD0001F93CF93DF934BD052D0C8EDD0E08881D3
:101CE0008F77888388818068888388818F7D8883C7
:101CF00019BC1092C9041092C5041092C704109226
:101D0000C60400EE10E0F80180818B7F808388811B
:101D10008160888342E060E080E010DFE1EEF0E087
:101D200080818E7F8083E2EEF0E08081816080831D
:101D3000808188608083F80180818E7F80838881A4
:101D400080618883DF91CF911F910F910895E8ED15
:101D5000F0E080818F7E8083E7EDF0E0808181601C
:101D6000808384E082BF81E08093C804B0CFE8ED37
:101D7000F0E080818E7F80831092E20008951092BF
:101D8000DA001092E10008951F920F920FB60F92A1
:101D900011242F933F934F935F936F937F938F9370
:101DA0009F93AF93BF93EF93FF938091E10082FFE6
:101DB0000AC08091E20082FF06C08091E1008B7F23
:101DC0008093E10050D28091DA0080FF1DC08091A5
:101DD000D80080FF19C08091DA008E7F8093DA00EE
:101DE0008091D90080FF0CC080E189BD82E189BD6E
:101DF00009B400FEFDCF81E08093C90443DD04C037
:101E000019BC1092C9044ADD8091E10080FF18C01E
:101E10008091E20080FF14C08091E2008E7F809369
:101E2000E2008091E20080618093E2008091D8001E
:101E300080628093D80019BC85E08093C90413D2D6
:101E40008091E10084FF2FC08091E20084FF2BC0CD
:101E500080E189BD82E189BD09B400FEFDCF80919A
:101E6000D8008F7D8093D8008091E1008F7E809391
:101E7000E1008091E2008F7E8093E2008091E20099
:101E800081608093E2008091C504882311F084E092
:101E900007C08091E30087FF02C083E001C081E0BA
:101EA0008093C904E0D18091E10083FF27C0809135
:101EB000E20083FF23C08091E100877F8093E100EF
:101EC00082E08093C9041092C5048091E1008E7F66
:101ED0008093E1008091E2008E7F8093E200809108
:101EE000E20080618093E20042E060E080E026DE74
:101EF0008091F00088608093F000B5D1FF91EF9160
:101F0000BF91AF919F918F917F916F915F914F9111
:101F10003F912F910F900FBE0F901F9018951F9219
:101F20000F920FB60F9211242F933F934F935F930D
:101F30006F937F938F939F93AF93BF93CF93EF93C1
:101F4000FF938091E9008F709091EC0090FF02C0A8
:101F500090E801C090E0C92FC82B1092E900809151
:101F6000F000877F8093F00078941CD01092E900F5
:101F70008091F00088608093F000CF70C093E900FA
:101F8000FF91EF91CF91BF91AF919F918F917F91F1
:101F90006F915F914F913F912F910F900FBE0F90D6
:101FA0001F9018951F93CF93DF93CDB7DEB7AC97F3
:101FB0000FB6F894DEBF0FBECDBFEAECF4E080911F
:101FC000F100819324E0E23DF207C9F76BDC8091D8
:101FD000E80083FF30C18091CA049091CB04953012
:101FE00009F487C038F49130B1F170F0933009F002
:101FF00022C131C0983009F4F3C0993009F4FFC010
:10200000963009F018C19BC0803821F0823809F061
:1020100012C108C08091C6049091C704992389F029
:1020200082600FC08091CE049091CF048F70992769
:102030008093E9008091EB0085FB882780F910925E
:10204000E9009091E800977F9093E8008093F10079
:102050001092F100D0C0882319F0823009F0EBC053
:102060008F7121F0823009F0E6C00BC08091CC0462
:10207000813009F0E0C0933009F080E08093C7041C
:102080002FC08091CC0481112BC08091CE049091FF
:10209000CF048F709927009709F4CDC08093E90091
:1020A0002091EB0020FF1CC02091CB04233021F4B1
:1020B0008091EB00806212C09091EB009061909350
:1020C000EB0021E030E001C0220F8A95EAF720936F
:1020D000EA001092EA008091EB0088608093EB00A8
:1020E0001092E9008091E800877F8093E8009CDDF2
:1020F000A2C08111A0C08091CC049091CD048F77B3
:102100009927182F9091E3009078982B9093E300F3
:102110008091E800877F8093E80086DD8091E80069
:1021200080FFFCCF8091E30080688093E30011235F
:1021300011F083E001C082E08093C9047CC0805824
:10214000823008F078C08091CC049091CD048C3D11
:1021500023E0920771F583E08A838AE289834FB78F
:10216000F894DE01139620E03EE051E2E32FF0E028
:1021700050935700E49120FF03C0E295EF703F5F5A
:10218000EF708E2F90E0EA3010F0C79601C0C09635
:102190008D939D932F5F243149F74FBF8091E800C5
:1021A000877F8093E8006AE270E0CE01019607DC49
:1021B00011C0AE01455D5F4F6091CE0476DB0097A4
:1021C000D1F12091E800277F2093E800BC018BA586
:1021D0009CA554DC8091E8008B778093E8002BC0AD
:1021E000803849F58091E800877F8093E8008091EE
:1021F000C5048093F1008091E8008E7776CF81113D
:102200001AC09091CC049230B0F48091E800877F9E
:102210008093E8009093C50407DD8091C504811187
:1022200004C08091E30087FF02C084E001C081E028
:102230008093C90434DB8091E80083FF0AC0809159
:10224000E800877F8093E8008091EB0080628093B4
:10225000EB00AC960FB6F894DEBF0FBECDBFDF919A
:10226000CF911F9108950895CF938091C904882339
:10227000A9F08091E9008F709091EC0090FF02C06E
:1022800090E801C090E0C92FC82B1092E90080911E
:10229000E80083FD87DECF70C093E900CF910895F9
:1022A000CF93DF93EC014096FC018BE0DF011D92A0
:1022B0008A95E9F782E08C83898783E08E8761E0E5
:1022C000CE01019672DC882361F061E0CE010696B2
:1022D0006CDC882331F061E0CE010B96DF91CF9169
:1022E00064CC80E0DF91CF910895FC01CB01209177
:1022F000C9042430C1F44489558966897789452BFE
:10230000462B472B81F021812F702093E900FC019F
:1023100001900020E9F7BF0161507109681B790B3A
:1023200040E050E0FFCA82E008952091C9042430C3
:1023300051F5FC014489558966897789452B462BDF
:10234000472B09F181818F708093E9003091F30070
:102350002091F200932F80E0822B892B11F480E0F2
:1023600008959091E8008091E8008E778093E800CE
:1023700095FDF5CF7ADC811107C09091E8009E773A
:102380009093E800089582E008952091C9042430D4
:1023900089F4FC014489558966897789452B462B48
:1023A000472B41F021812F702093E9002091E80014
:1023B00020FDBBCF08952091C904243009F01FC02F
:1023C000FC014489558966897789452B462B472B23
:1023D000B1F086818F708093E9008091E80082FFE0
:1023E0000EC03091F3002091F200932F80E0822BF9
:1023F000892B41F48091E8008B778093E80020E0FE
:1024000030E007C09091F3008091F200392F20E076
:10241000282BC90108952091C904243019F02FEF09
:102420003FEF2EC0FC014489558966897789452B89
:10243000462B472BA1F386818F708093E900809112
:10244000E80082FFECCF3091F3002091F200932F4F
:1024500080E0822B892B21F02091F10030E002C036
:102460002FEF3FEF5091F3004091F200952F80E065
:10247000842B892B29F48091E8008B778093E800E6
:10248000C90108950895CF93DF93EC018091E8008E
:1024900083FFA7C0888190E02091CE043091CF04C3
:1024A0002817390709F09DC08091CB04813261F073
:1024B00020F4803209F095C03DC0823209F46DC02D
:1024C000833209F08EC07DC08091CA04813A09F040
:1024D00088C08091E800877F8093E8008091E800C1
:1024E00080FFFCCF4C895D896E897F894093F10024
:1024F000BB27A72F962F852F8093F100CB01AA270A
:10250000BB278093F100472F5527662777274093F5
:10251000F100888D8093F100898D8093F1008A8D80
:102520008093F1008091E8008E778093E800DF913E
:10253000CF917ACB8091CA04813209F052C0809148
:10254000E800877F8093E80005C08091C904882354
:1025500009F447C08091E80082FFF7CF3091F10085
:102560002091F1009091F1008091F1003C8B2D8B36
:102570009E8B8F8B8091F100888F8091F100898FE5
:102580008091F1008A8F8091E8008B778093E8003A
:102590004BDBCE01DF91CF9175CF8091CA048132A0
:1025A00001F58091E800877F8093E8003DDB809112
:1025B000CC049091CD04998B888BCE01DF91CF9183
:1025C00061CF8091CA04813261F48091E800877FF5
:1025D0008093E80029DB6091CC04CE01DF91CF919C
:1025E00051CFDF91CF910895AA1BBB1B51E107C0CA
:1025F000AA1FBB1FA617B70710F0A61BB70B881F93
:10260000991F5A95A9F780959095BC01CD01089521
:1026100097FB072E16F4009406D077FD08D0E4DF70
:1026200007FC05D03EF4909581959F4F08957095D5
:1026300061957F4F0895FC0188279927E89421919F
:102640002032E9F3293010F02E30C8F32B3239F064
:102650002D3231F4689403C03ED0820F911D219138
:1026600020532A30C8F31EF4909581959F4F08950A
:102670004BE754E009C0FB01DC018D91019080190A
:102680000110D9F3990B0895FA01A191B081009737
:1026900019F41097E1F0CD01DC01CD010D9000207F
:1026A00011F4C00113C0FB012191222319F0201560
:1026B000D9F7F3CFFB012191201519F41E92119641
:1026C00006C02223C1F70D900020A1F7D001FA0126
:1026D000A193B08308957AE0979F902D879F802DD6
:1026E000910D11240895F999FECF92BD81BDF89AFC
:1026F000992780B50895262FF999FECF92BD81BD07
:10270000F89A019700B4021639F01FBA20BD0FB62F
:0E271000F894FA9AF99A0FBE0895F894FFCF44
:10271E00640006049001811F007D14800C2003903C
:10272E0001060100010100811F0A24019001000130
:10273E000403FFFFFFFF000001000200030004007E
:10274E00050006000700080009000A000B000C0037
:10275E000D000E000F0010001100120013001400E7
:10276E00150016001700180019001A001B001C0097
:10277E001D0032005E0101010132008310000001D4
:10278E00041000000182080000010000000000009B
:10279E000000000000646F6E650A00666F6F0062D5
:1027AE0061720A0070696E670070696E670A007464
:1027BE00696C740074696C740A006275696C6448A3
:1027CE006F6D65006275696C64486F6D650A0062B5
:1027DE0075696C64546F70006275696C64546F70C7
:1027EE000A006275696C64426173655570006275AA
:1027FE00696C644261736555700A006275696C6438
:10280E005570006275696C6455700A007368757452
:10281E007465724F70656E00736875747465724F6F
:10282E0070656E0A0073687574746572436C6F73AD
:10283E00650073687574746572436C6F73650A0016
:10284E0073687574746572456E61626C6500736849
:10285E007574746572456E61626C650A0073687595
:10286E007474657244697361626C65007368757423
:10287E0074657244697361626C650A00747269678B
:10288E0067657243616D0074726967676572436153
:10289E006D0A006265616D6572486F6D65006265F7
:1028AE00616D6572546F700020006275696C644CC6
:1028BE0061796572006275696C644C617965720A42
:1028CE00006275696C64426173654C617965720072
:1028DE006275696C64426173654C617965720A0058
:1028EE0074696C7453706565640074696C745370AC
:1028FE006565640A0074696C74416E676C6500747A
:10290E00696C74416E676C650A0074696C7452650B
:10291E00730074696C745265730A006275696C6435
:10292E005370656564006275696C645370656564A7
:10293E000A006275696C64526573006275696C6435
:10294E005265730A006275696C644D696E4D6F76DF
:10295E0065006275696C644D696E4D6F76650A002F
:10296E006275696C644D6F7665006275696C644D55
:10297E006F76650A007072696E74696E67466C6177
:10298E0067007072696E74696E67466C61670A00E3
:10299E00736C69636500736C6963650A006E536CD2
:1029AE0069636573006E536C696365730A007368BF
:1029BE007474724F706E50730073687474724F70CB
:1029CE006E50730A007368747472436C73507300A4
:0C29DE007368747472436C7350730A00C9
:00000001FF
