:10000000BBC0000010C20000E2C10000D1C000006F
:10001000CFC00000CDC00000CBC000002EC2000049
:10002000C7C00000C5C000000C94900D0C945B0E7E
:10003000BFC00000BDC00000BBC00000B9C00000D0
:10004000B7C000004DC10000B3C00000B1C0000047
:10005000AFC000000BC10000ABC00000A9C0000091
:10006000A7C00000CEC20000F7C20000A1C000007F
:100070009FC000009DC000009BC0000099C0000010
:1000800053C1000095C0000093C0000091C0000063
:100090008FC000008DC000008BC0000089C0000030
:1000A00067C1000070C1000083C000005541525478
:1000B000204672616D65204572726F723A2000555C
:1000C000415254204F76657272756E204572726F80
:1000D000723A2000427566666572206F76657266B8
:1000E0006C6F77206572726F723A20001C034C00AF
:1000F000550046004100200043004400430020001A
:10010000440065006D006F000000180344006500A6
:1001100061006E002000430061006D006500720008
:10012000610000000403090409023E00020100C04E
:10013000320904000001020201000524001001043C
:100140002402060524060001070582030800FF09B2
:10015000040100020A000000070504021000050760
:100160000583021000051201100102000008EB03D4
:10017000442001000102DC0111241FBECFEFDAE0B0
:10018000DEBFCDBF13E0A0E0B1E0E6EBF4E202C0D9
:1001900005900D92A43CB107D9F724E0A4ECB3E09C
:1001A00001C01D92A93CB207E1F703D00C9459128B
:1001B0008FC19FD114D21ED2C5E0D0E014D21CD280
:1001C0002FEF81EE94E0215080409040E1F700C095
:1001D0000000219799F778940E94510A02D20AD21E
:1001E000F7D280911B0114D78091C6038823D1F1E7
:1001F0001092C6038091910080FF809181008091D0
:10020000810080FD1EC08091910080FD1AC0809108
:10021000C1008970B1F48091C8039091C90301961F
:100220009093C9038093C803883E934051F40E9481
:10023000B10A811106C01092C9031092C8030E942E
:10024000C10A0E948B0A882369F08FEF91EE24E0A7
:10025000815090402040E1F700C0000085E891E027
:100260000E94D10A81E00E94050BBACF1F920F9223
:100270000FB60F9211242F933F934F935F936F9379
:100280008F939F932091C4033091C5034091000147
:10029000509101016AE0649FC001659F900D112497
:1002A0002817390741F481E08093C6031092C503F3
:1002B0001092C40309C08091C4039091C5030196B4
:1002C0009093C5038093C4039F918F916F915F9129
:1002D0004F913F912F910F900FBE0F901F90189547
:1002E0001F920F920FB60F9211242F933F934F93AB
:1002F0005F936F937F938F939F93AF93BF93EF938E
:10030000FF931D998BD7FF91EF91BF91AF919F9173
:100310008F917F916F915F914F913F912F910F90AE
:100320000FBE0F901F9018951F920F920FB60F924D
:1003300011242F933F934F935F936F937F938F93EA
:100340009F93AF93BF93EF93FF9336999CD4FF9104
:10035000EF91BF91AF919F918F917F916F915F913D
:100360004F913F912F910F900FBE0F901F901895B6
:100370001F920F920FB60F9211245F980F900FBE2D
:100380000F901F9018951F920F920FB60F92112485
:100390002F933F934F935F936F937F938F939F938D
:1003A000AF93BF93EF93FF930E94220AFF91EF91C7
:1003B000BF91AF919F918F917F916F915F914F917D
:1003C0003F912F910F900FBE0F901F9018951F9285
:1003D0000F920FB60F9211242F933F934F935F9379
:1003E0006F937F938F939F93AF93BF93EF93FF93FD
:1003F000F8D037D58091630490916404909362049F
:1004000080936104FF91EF91BF91AF919F918F9184
:100410007F916F915F914F913F912F910F900FBE00
:100420000F901F9018951F920F920FB60F921124E4
:100430002F933F934F935F936F937F938F939F93EC
:10044000AF93BF93EF93FF93D5D012D5109278045A
:100450001092640410926304FF91EF91BF91AF91E9
:100460009F918F917F916F915F914F913F912F91CC
:100470000F900FBE0F901F9018951F920F920FB6FE
:100480000F9211242F933F934F935F936F937F931A
:100490008F939F93AF93BF93EF93FF93ABD073D39F
:1004A000882329F09AD3811102C08AD392D3FF9175
:1004B000EF91BF91AF919F918F917F916F915F91DC
:1004C0004F913F912F910F900FBE0F901F90189555
:1004D0001F920F920FB60F92112485D08DD02FEF5F
:1004E00080E792E0215080409040E1F700C000009A
:1004F000F4CF84B7877F84BF88E10FB6F8948093E8
:100500006000109260000FBE859A8D98849A8C9836
:10051000269A2E98879A8F98249A2C9A259A2D9805
:10052000869A8E98549A5C9A3E9A4698579A599A07
:10053000589A769AE9E6F0E080818F608083EAE657
:10054000F0E08081806380838DB383648DBB84B54C
:10055000826084BD85B5826085BD88EC87BDEEE68E
:10056000F0E0808182608083E0E8F0E08081806458
:100570008083E1E8F0E0808188608083EFE6F0E04E
:10058000808182608083E0E9F0E080818064808304
:10059000E1E9F0E0808188608083E1E7F0E080813C
:1005A00082608083E2E7F0E080818468808387E670
:1005B00090E07CD00C94730D2FB7F8949093890041
:1005C000809388002FBF08952FB7F89490939900D7
:1005D000809398002FBF08958093D20008958D9A3C
:1005E00008958D98089581B390E2892781BB08957D
:1005F0008C9A08958C98089581B390E1892781BBE6
:1006000008951F920F920FB60F9211242F938F937C
:100610009F93EF93FF938091C8009091CE008871D3
:10062000E091CF03EF5FEF712091CE03E21739F035
:10063000E093CF03F0E0EE52FC4F908301C082E0E4
:100640008093CD03FF91EF919F918F912F910F9008
:100650000FBE0F901F9018951F920F920FB60F921A
:1006600011248F939F93EF93FF939091D1038091E7
:10067000D003981769F0E091D003EF5FEF71E0933A
:10068000D003F0E0EE50FC4F80818093CE0005C097
:100690008091C9008F7D8093C900FF91EF919F9158
:1006A0008F910F900FBE0F901F9018951092D1034D
:1006B0001092D0031092CF031092CE0397FF04C084
:1006C00022E02093C8009F779093CD008093CC00C8
:1006D00088E98093C90086E08093CA0008959091CC
:1006E000CF038091CE03981789F0E091CE03EF5F9E
:1006F000EF71E093CE03F0E0EE52FC4F80819091D9
:10070000CD03392F20E0280F311D02C020E031E059
:10071000C90108959091D1039F5F9F712091D003EB
:100720009217E1F3E92FF0E0EE50FC4F80839093B5
:10073000D1038091C90080628093C9000895CF934E
:10074000DF93EC0101C0E6DFFE0121968491811167
:10075000FACFDF91CF910895BF92CF92DF92EF92BF
:10076000FF920F931F93CF93DF937C01B12C062F41
:1007700010E0015011091DC0B2DFEC0190FF05C06F
:10078000F701EC0DFD1D108219C093FF03C08CEA28
:1007900090E009C092FF03C08FEB90E004C091FF8E
:1007A00003C084ED90E0CBDFF701EB0DF11DC083BA
:1007B000B394CB2CD12CC016D106F4F2DF91CF919B
:1007C0001F910F91FF90EF90DF90CF90BF90089511
:1007D0000F931F93CF93DF936EE18EE894E0EBD6F7
:1007E00080918E04811104C06EE18EE894E0B4DF44
:1007F0006BE871E08EE894E00E940712009719F40C
:1008000080E991E0CED666E971E08EE894E00E943E
:100810000712009771F46091740480911C01E3D178
:100820008FE39CE90197F1F700C000008BE991E0AC
:10083000A0C161EA71E08EE894E00E94071200977F
:1008400051F462D38FE39CE90197F1F700C00000F7
:100850008BEA91E08EC166EB71E08EE894E00E9435
:100860000712009721F475D38FEB91E082C169ECF8
:1008700071E08EE894E00E940712009721F492D371
:1008800085ED91E076C162EE71E08EE894E00E9421
:100890000712009721F46CD38AEE91E06AC163EFEE
:1008A00071E08EE894E00E940712009721F4E7D5EA
:1008B0008FEF91E05EC16CE072E08EE894E00E9400
:1008C0000712009721F4DED589E192E052C167E278
:1008D00072E08EE894E00E940712009721F4D5D5CB
:1008E00085E392E046C164E472E08EE894E00E9401
:1008F0000712009721F4CFD583E592E03AC163E671
:1009000072E08EE894E00E940712009721F41DD651
:100910008EE692E02EC16AE772E08EE894E00E94D3
:100920000712009709F42AC165E872E08EE894E0A6
:100930000E940712009709F421C180918E04882338
:1009400009F41CC16FE872E08EE894E00E94041282
:100950009093AD048093AC046FE872E080E090E087
:100960000E940412EC0190938D0480938C040091FA
:10097000AC041091AD0461E972E0C8010E94071255
:10098000009759F4CE010E94E7118093AE04909332
:10099000AF0492D28CE992E0ECC068EA72E0C80140
:1009A0000E940712009759F4CE010E94E71180932C
:1009B000AE049093AF0494D287EB92E0DAC067EC78
:1009C00072E0C8010E940712009759F4CE010E94FC
:1009D000E7118093AE049093AF0423D281ED92E0AF
:1009E000C8C06CED72E0C8010E940712009759F46C
:1009F000CE010E94E7119093AF048093AE04E9D139
:100A000086EE92E0B6C061EF72E0C8010E94071264
:100A1000009759F4CE010E94E7119093AF048093A0
:100A2000AE04CBD189EF92E0A4C062E073E0C801CC
:100A30000E940712009759F4CE010E94E71180939B
:100A4000AE049093AF041CD28DE093E092C069E1B4
:100A500073E0C8010E940712009759F4CE010E946A
:100A6000E7119093AF048093AE041ED282E293E02C
:100A700080C06CE273E0C8010E940712009759F42D
:100A8000CE010E94E7119093AF048093AE0411D27F
:100A900089E393E06EC067E473E0C8010E94071227
:100AA000009759F4CE010E94E7119093AF04809310
:100AB000AE0492D281E593E05CC06CE573E0C801BE
:100AC0000E940712009771F4CE010E94E7119093E3
:100AD000AF048093AE048230910508F445D589E6D1
:100AE00093E047C067E773E0C8010E9407120097D0
:100AF00059F4CE010E94E7119093AF048093AE04A5
:100B000036D58DE793E035C064E873E0C8010E94F4
:100B10000712009759F4CE010E94E7119093AF0499
:100B20008093AE0429D58CE893E023C065E973E097
:100B3000C8010E940712009759F4CE010E94E711E4
:100B40009093AF048093AE0494D480EA93E011C0F4
:100B50006CEA73E0C8010E940712009779F4CE0195
:100B60000E94E7119093AF048093AE0485D487EB85
:100B700093E0DF91CF911F910F9113C5DF91CF913A
:100B80001F910F9108952091910020FF06C02091A0
:100B9000910021FB882780F9089580E090E0089576
:100BA0008E9A2FEF80E792E0215080409040E1F74D
:100BB00000C00000E1E9F0E0808183608083089557
:100BC000E1E9F0E080818D7F808380818E7F80836A
:100BD00008955C9808955C9A08958BB18295817010
:100BE00091E08927089522E6629FC001961B112497
:100BF0008653994F6AE070E00E94D4117093850487
:100C00006093840420918404309185048CE791E002
:100C1000821B930B6091110170E00E94C0117093D0
:100C2000BB046093BA048091820490918304660FA0
:100C3000771F8617970738F49C01369527953093D0
:100C4000BB042093BA042091BA043091BB043093C2
:100C50005D0420935C04821B930B90935B04809350
:100C60005A048CE791E090938504809384048091EA
:100C7000840490918504A8DC1092680410926704A3
:100C8000A8DF8EDFACCCA9DF20915C0430915D043D
:100C9000882309F44CC080916704909168048217FE
:100CA000930788F480918404909185042091110128
:100CB000821B91099093850480938404809184041D
:100CC0009091850481DC20916704309168048091C3
:100CD0005A0490915B048217930788F480918404EE
:100CE0009091850420911101820F911D90938504AC
:100CF00080938404809184049091850465DC8091C4
:100D00006704909168040196909368048093670447
:100D100020918204309183048217930709F04CC01C
:100D200067DC5FDC109268041092670454CF8091F6
:100D30006704909168048217930788F48091840473
:100D40009091850420911101821B91099093850453
:100D500080938404809184049091850435DC2091F3
:100D600067043091680480915A0490915B04821763
:100D7000930788F480918404909185042091110157
:100D8000820F911D90938504809384048091840444
:100D90009091850419DC8091670490916804019614
:100DA00090936804809367042091820430918304B7
:100DB0008217930709F41ECC08959C013695279558
:100DC0003093100120930F0190930E0180930D0139
:100DD000089520910F01309110018217930728F098
:100DE00080910D0190910E010CC02091580430911A
:100DF00059048217930728F43093830420938204C4
:100E000004C090938304809382046DE080911C0160
:100E100090911D01BDD360911C0183E090E00C9482
:100E200047128A3010F08AE003C0811101C081E0CE
:100E3000809374046EE08091740490E0A9C38F9A4B
:100E40002FEF80E792E0215080409040E1F700C012
:100E50000000E1E8F0E080818160808308952C98B3
:100E600008958F98E1E8F0E080818E7F8083089577
:100E7000E1E8F0E080818E7F808308952C9A0895C8
:100E8000843010F084E003C0811101C081E08093C0
:100E90001B0161E180911B0190E07AD360911B01FD
:100EA00080E090E00C94471290930C0180930B012A
:100EB000089580930A010895823310F082E303C0FD
:100EC000811101C081E080931A0162E180911A01D1
:100ED00090E05ED360911A0182E090E00C9447129A
:100EE000823310F082E303C0811101C081E080935E
:100EF000190163E18091190190E04AD360911901D1
:100F000081E090E00C944712489B04C081E08093FC
:100F10005F0408958091780481110DC081E0809371
:100F2000780410926204109261048091610490919F
:100F3000620464E12DC381E0809360041092780420
:100F4000109264041092630410926204109261047F
:100F500008958091810080FD07C080E49CE9909312
:100F6000620480936104089581E080936004089591
:100F7000809161049091620420911A0130E0820F07
:100F8000931F81349C4918F080E49CE906C080914D
:100F9000610490916204820F931F90936204809386
:100FA0006104089580916104909162042091190177
:100FB00030E0820F931F81349C4918F080E49CE953
:100FC00006C08091610490916204820F931F9093F8
:100FD0006204809361040895409161045091620419
:100FE0009C01480F591F41345C4918F080E49CE98A
:100FF0000AC0809161049091620480916104909193
:101000006204820F931F9093620480936104089599
:101010009091810090FD26C043EC55EF849F900194
:10102000859F300D1124C9018254964D909307017C
:10103000809306018091060190910701883E9340BC
:1010400034F488EE93E0909307018093060181E8E1
:101050009FE190931801809317018091170190915F
:101060001801AADA2091630430916404809161042C
:10107000909162042817390708F04BC080918100D5
:1010800080FD47C04999C9C0209161043091620434
:101090008091630490916404281B390B3093B90448
:1010A0002093B80480911701909118014091060196
:1010B00050910701841B950B60910401709105010B
:1010C0000E94C011CB01880F991F2817390728F0FB
:1010D0007093B1046093B00407C0C90196958795D9
:1010E0009093B1048093B0048091B0049091B104C6
:1010F0009093B7048093B604281B390B3093B50442
:101100002093B4041092B3041092B20468DAA7DEFC
:101110007FC02091630430916404809161049091B8
:1011200062048217930708F045C08091810080FD1A
:1011300041C0489972C02091630430916404809149
:10114000610490916204281B390B3093B9042093F9
:10115000B8048091170190911801409106015091B7
:101160000701841B950B60910401709105010E9499
:10117000C011CB01880F991F2817390728F07093E9
:10118000B1046093B00407C0C90196958795909308
:10119000B1048093B0048091B0049091B104909315
:1011A000B7048093B604281B390B3093B504209301
:1011B000B40428C080917804882379F1809181005B
:1011C00080FD2BC0489925C080911701909118018E
:1011D0002091060130910701821B930B609104015D
:1011E000709105010E94C0117093B1046093B00426
:1011F0007093B7046093B6048FEF9FEF9093B5049C
:101200008093B4041092B3041092B204F1D936DE84
:1012100016CE1092640410926304089590910A010E
:101220002C9976C0809165048F5F80936504891343
:10123000F1C08091B2049091B30401969093B304ED
:101240008093B2042091B2043091B3048091B6042B
:101250009091B7042817390798F48091170190915D
:1012600018012091040130910501821B930B90938A
:1012700018018093170180911701909118019CD952
:101280002091B2043091B3048091B4049091B504DC
:101290008217930798F4809117019091180120917B
:1012A000040130910501820F931F909318018093E0
:1012B000170180911701909118017ED91092650451
:1012C00080916304909164040196909364048093E8
:1012D00063042091630430916404809161049091CF
:1012E00062042817390721F485D97BD9C1DD92C062
:1012F00020916304309164048091610490916204B0
:101300008217930708F086C073D9B8DD3DD182C03B
:10131000809165048F5F8093650489137BC0809101
:10132000B2049091B30401969093B3048093B204F5
:101330002091B2043091B3048091B6049091B70427
:101340002817390798F4809117019091180120917E
:10135000040130910501821B930B90931801809337
:101360001701809117019091180126D92091B2049C
:101370003091B3048091B4049091B504821793071F
:10138000B8F480917804811113C080911701909175
:1013900018012091040130910501820F931F909351
:1013A000180180931701809117019091180104D9B9
:1013B0008091780410926504882351F08091630431
:1013C000909164040197909364048093630422C015
:1013D00080916304909164040197909364048093D6
:1013E00063042091630430916404809161049091BE
:1013F00062042817390709F477CF209163043091EC
:10140000640480916104909162042817390710F4F4
:10141000E6D825DD80916004882399F0E2D8EAD8E7
:1014200027DD10926004809163049091640490938E
:10143000620480936104809161049091620464E18C
:10144000A7C0089580915704982F9F5F90935704E9
:101450008A3019F45F9A1092570408952DE7829FFD
:10146000C00111248E519B4F6AE070E089D7862F0E
:10147000B3C8809303010895809302010895809179
:101480000301ECCF80910201E9CFE1ECF0E0808133
:10149000886080830895E1ECF0E08081807F808324
:1014A000089586E08093740483E090E090931D019A
:1014B00080931C01109278041092640410926304CB
:1014C000809163049091640490936204809361041A
:1014D00080E090E0D4D780931B016DE083E090E042
:1014E00057D06EE08091740490E052D061E1809119
:1014F0001B0190E04DD062E180911A0190E048D04C
:1015000063E18091190190E043D080916304909150
:10151000640464E13DC08091810080FD0EC0809133
:10152000910080FD0AC080915F0410925F048823BF
:1015300039F081E08093140105C081E080935F045D
:10154000109214018091140108952E9A2FEF80E7D4
:1015500092E0215080409040E1F700C000002E98BA
:10156000089580915E04089580935E040895909399
:101570001301809312010895909316018093150131
:1015800008958E988F98089581E080936904089556
:10159000E62FF0E0EE0FFF1FEA5DFE4F91838083A0
:1015A000F3CFBC018AE691E06CC58AE691E0CFC535
:1015B0008AE691E0FCC5DF92EF92FF920F931F93B2
:1015C000CF93DF938C01D12CC62FD0E0219707C099
:1015D0007801E80EF91EECDFF7018083D394E5DF94
:1015E000892B29F4F801ED0DF11D108206C08D2D17
:1015F00090E08C179D0764F3F5CFDF91CF911F9199
:101600000F91FF90EF90DF900895811103C08AE65B
:1016100091E0CDD58AE691E084D5F2C484E08D983E
:10162000E7ECF0E03197F1F700C000008D9A8150AF
:10163000B1F7089508958AE691E0FEC48AE691E044
:10164000EEC5292F33272230310539F023303105FB
:1016500049F02130310521F128C0EEE3F0E088E2C5
:1016600091E027C099278130910561F08230910582
:1016700081F0892BD1F4E4E2F1E0E491F0E084E23E
:1016800091E017C0EAE0F1E0E491F0E08AE091E057
:1016900010C0ECEEF0E0E491F0E08CEE90E009C0D8
:1016A000E2E1F0E086E691E004C0E0E0F0E080E016
:1016B00090E0DA018D939C93CF010895BF92CF9271
:1016C000DF92EF92FF920F931F93CF93DF937C01F2
:1016D0008B01EA0196D1B82E811132C0209731F0EA
:1016E00028813981021B130BE20EF31EC12CD12C71
:1016F00022C08091E80085FD14C08091E8008E77BB
:101700008093E800209749F0888199818C0D9D1D78
:101710009983888325E0B22E13C073D1882359F0B2
:101720000EC0F70181917F018093F10001501109F2
:10173000FFEFCF1ADF0A01151105D9F601C0B82E47
:101740008B2DDF91CF911F910F91FF90EF90DF9044
:10175000CF90BF9008954091C7045091C804461798
:10176000570748F06115710539F44091E8004E774C
:101770004093E80001C0BA01FC0140E033C0809111
:10178000C004882309F442C0853009F441C0809127
:10179000E80083FD39C08091E80082FD2FC0809170
:1017A000E80080FF1FC09091F3008091F200392F74
:1017B00020E0A901482BCA0106C041914093F100E5
:1017C0006150710901966115710519F08830910514
:1017D000A0F341E0089709F040E08091E8008E779F
:1017E0008093E8006115710551F64111C8CF06C01C
:1017F0008091C004882351F0853051F08091E80039
:1018000082FFF6CF80E0089581E0089582E0089598
:1018100083E008954091C7045091C80446175707C4
:1018200048F06115710539F44091E8004E77409316
:10183000E80001C0BA01FC0140E034C08091C0045E
:10184000882309F443C0853009F442C08091E80040
:1018500083FD3AC08091E80082FD30C08091E800AD
:1018600080FF20C09091F3008091F200392F20E09A
:10187000A901482BCA0107C044914093F100319659
:101880006150710901966115710519F08830910553
:1018900098F341E0089709F040E08091E8008E77E6
:1018A0008093E8006115710549F64111C7CF06C064
:1018B0008091C004882351F0853051F08091E80078
:1018C00082FFF6CF80E0089581E0089582E00895D8
:1018D00083E00895982F2CC09093E900981739F071
:1018E0007091EC002091ED005091F00003C0242F86
:1018F000762F50E021FD02C09F5F1AC03091EB00AF
:101900003E7F3093EB003091ED003D7F3093ED0052
:101910003091EB0031603093EB007093EC0020933A
:10192000ED005093F0002091EE0027FDE5CF07C0B9
:10193000973090F28F708093E90081E0089580E005
:1019400008950F931F93CF93DF93062FEC0110E0C0
:101950002FC09881911103C01F5F259629C02C814B
:10196000E981FA817B81892F8F70873010F080E0C8
:1019700022C0223010F056E001C052E028E030E0F2
:1019800040E003C04F5F220F331F2E173F07D0F3F5
:101990004295407F452B692F661F6627661F90E49E
:1019A000799F90011124622B95DF8111D5CFDFCF74
:1019B0001013CFCF81E0DF91CF911F910F91089548
:1019C0008091C10487FD05C08091E80080FF0EC0B2
:1019D00012C08091E80082FD05C08091C004811191
:1019E000F8CF08958091E8008B7708C08091C004FB
:1019F0008111EACF08958091E8008E778093E80006
:101A000008958091E4009091E50045E62091EC0076
:101A100020FD1FC023C02091C004222391F0253057
:101A200091F02091EB0025FD10C02091E400309151
:101A3000E5002817390751F34150C90139F784E00F
:101A4000089582E0089583E0089581E0089580E09C
:101A500008952091E80020FFDECFF9CF2091E80023
:101A600022FFD9CFF4CF0F931F93CF93DF934BD0A7
:101A700052D0C8EDD0E088818F77888388818068D4
:101A8000888388818F7D888319BC1092C00410924E
:101A9000BC041092BE041092BD0400EE10E0F801E8
:101AA00080818B7F808388818160888342E060E0D1
:101AB00080E010DFE1EEF0E080818E7F8083E2EE57
:101AC000F0E0808181608083808188608083F8017C
:101AD00080818E7F8083888180618883DF91CF9130
:101AE0001F910F910895E8EDF0E080818F7E808353
:101AF000E7EDF0E080818160808384E082BF81E057
:101B00008093BF04B0CFE8EDF0E080818E7F8083CA
:101B10001092E20008951092DA001092E100089508
:101B20001F920F920FB60F9211242F933F934F9352
:101B30005F936F937F938F939F93AF93BF93EF9335
:101B4000FF938091E10082FF0AC08091E20082FF52
:101B500006C08091E1008B7F8093E10050D280919C
:101B6000DA0080FF1DC08091D80080FF19C08091ED
:101B7000DA008E7F8093DA008091D90080FF0CC05C
:101B800080E189BD82E189BD09B400FEFDCF81E01D
:101B90008093C00443DD04C019BC1092C0044ADD28
:101BA0008091E10080FF18C08091E20080FF14C0A6
:101BB0008091E2008E7F8093E2008091E20080615C
:101BC0008093E2008091D80080628093D80019BC95
:101BD00085E08093C00413D28091E10084FF2FC080
:101BE0008091E20084FF2BC080E189BD82E189BD44
:101BF00009B400FEFDCF8091D8008F7D8093D8007E
:101C00008091E1008F7E8093E1008091E2008F7EE1
:101C10008093E2008091E20081608093E2008091F5
:101C2000BC04882311F084E007C08091E30087FFA3
:101C300002C083E001C081E08093C004E0D18091C4
:101C4000E10083FF27C08091E20083FF23C08091E1
:101C5000E100877F8093E10082E08093C0041092CE
:101C6000BC048091E1008E7F8093E1008091E200CE
:101C70008E7F8093E2008091E20080618093E20099
:101C800042E060E080E026DE8091F0008860809392
:101C9000F000B5D1FF91EF91BF91AF919F918F91DE
:101CA0007F916F915F914F913F912F910F900FBE58
:101CB0000F901F9018951F920F920FB60F9211243C
:101CC0002F933F934F935F936F937F938F939F9344
:101CD000AF93BF93CF93EF93FF938091E9008F7001
:101CE0009091EC0090FF02C090E801C090E0C92FF5
:101CF000C82B1092E9008091F000877F8093F0005C
:101D000078941CD01092E9008091F0008860809354
:101D1000F000CF70C093E900FF91EF91CF91BF9198
:101D2000AF919F918F917F916F915F914F913F9173
:101D30002F910F900FBE0F901F9018951F93CF9368
:101D4000DF93CDB7DEB7AC970FB6F894DEBF0FBE0A
:101D5000CDBFE1ECF4E08091F100819324E0E93C17
:101D6000F207C9F76BDC8091E80083FF30C18091F6
:101D7000C1049091C204953009F487C038F49130C1
:101D8000B1F170F0933009F022C131C0983009F4FC
:101D9000F3C0993009F4FFC0963009F018C19BC018
:101DA000803821F0823809F012C108C08091BD044A
:101DB0009091BE04992389F082600FC08091C50480
:101DC0009091C6048F7099278093E9008091EB0071
:101DD00085FB882780F91092E9009091E800977FB1
:101DE0009093E8008093F1001092F100D0C0882316
:101DF00019F0823009F0EBC08F7121F0823009F0C8
:101E0000E6C00BC08091C304813009F0E0C093307C
:101E100009F080E08093BE042FC08091C30481113B
:101E20002BC08091C5049091C6048F7099270097AC
:101E300009F4CDC08093E9002091EB0020FF1CC085
:101E40002091C204233021F48091EB00806212C003
:101E50009091EB0090619093EB0021E030E001C0A5
:101E6000220F8A95EAF72093EA001092EA00809107
:101E7000EB0088608093EB001092E9008091E8000D
:101E8000877F8093E8009CDDA2C08111A0C0809173
:101E9000C3049091C4048F779927182F9091E30081
:101EA0009078982B9093E3008091E800877F80934F
:101EB000E80086DD8091E80080FFFCCF8091E300A0
:101EC00080688093E300112311F083E001C082E079
:101ED0008093C0047CC08058823008F078C0809124
:101EE000C3049091C4048C3D23E0920771F583E014
:101EF0008A838AE289834FB7F894DE01139620E043
:101F00003EE051E2E32FF0E050935700E49120FFD0
:101F100003C0E295EF703F5FEF708E2F90E0EA30E4
:101F200010F0C79601C0C0968D939D932F5F24310A
:101F300049F74FBF8091E800877F8093E8006AE20D
:101F400070E0CE01019607DC11C0AE01455D5F4F28
:101F50006091C50476DB0097D1F12091E800277FDE
:101F60002093E800BC018BA59CA554DC8091E8007F
:101F70008B778093E8002BC0803849F58091E8008A
:101F8000877F8093E8008091BC048093F10080916A
:101F9000E8008E7776CF81111AC09091C3049230F9
:101FA000B0F48091E800877F8093E8009093BC04B0
:101FB00007DD8091BC04811104C08091E30087FF9C
:101FC00002C084E001C081E08093C00434DB8091D2
:101FD000E80083FF0AC08091E800877F8093E800D3
:101FE0008091EB0080628093EB00AC960FB6F89482
:101FF000DEBF0FBECDBFDF91CF911F910895089531
:10200000CF938091C0048823A9F08091E9008F705C
:102010009091EC0090FF02C090E801C090E0C92FC1
:10202000C82B1092E9008091E80083FD87DECF7015
:10203000C093E900CF910895CF93DF93EC014096D0
:10204000FC018BE0DF011D928A95E9F782E08C8329
:10205000898783E08E8761E0CE01019672DC882358
:1020600061F061E0CE0106966CDC882331F061E01E
:10207000CE010B96DF91CF9164CC80E0DF91CF91C0
:102080000895FC01CB012091C0042430C1F444899F
:10209000558966897789452B462B472B81F021810D
:1020A0002F702093E900FC0101900020E9F7BF01A7
:1020B00061507109681B790B40E050E0FFCA82E073
:1020C00008952091C004243051F5FC0144895589BC
:1020D00066897789452B462B472B09F181818F70C3
:1020E0008093E9003091F3002091F200932F80E07B
:1020F000822B892B11F480E008959091E800809163
:10210000E8008E778093E80095FDF5CF7ADC8111A9
:1021100007C09091E8009E779093E800089582E0D0
:1021200008952091C004243089F4FC014489558924
:1021300066897789452B462B472B41F021812F70EB
:102140002093E9002091E80020FDBBCF0895209165
:10215000C004243009F01FC0FC01448955896689F8
:102160007789452B462B472BB1F086818F70809362
:10217000E9008091E80082FF0EC03091F3002091C9
:10218000F200932F80E0822B892B41F48091E800AC
:102190008B778093E80020E030E007C09091F30057
:1021A0008091F200392F20E0282BC9010895209159
:1021B000C004243019F02FEF3FEF2EC0FC014489FA
:1021C000558966897789452B462B472BA1F3868154
:1021D0008F708093E9008091E80082FFECCF30910E
:1021E000F3002091F200932F80E0822B892B21F0C5
:1021F0002091F10030E002C02FEF3FEF5091F3004B
:102200004091F200952F80E0842B892B29F4809156
:10221000E8008B778093E800C90108950895CF9373
:10222000DF93EC018091E80083FFA7C0888190E0F4
:102230002091C5043091C6042817390709F09DC0C4
:102240008091C204813261F020F4803209F095C09F
:102250003DC0823209F46DC0833209F08EC07DC06A
:102260008091C104813A09F088C08091E800877F9D
:102270008093E8008091E80080FFFCCF4C895D8965
:102280006E897F894093F100BB27A72F962F852F5A
:102290008093F100CB01AA27BB278093F100472F41
:1022A0005527662777274093F100888D8093F100AA
:1022B000898D8093F1008A8D8093F1008091E800F0
:1022C0008E778093E800DF91CF917ACB8091C10423
:1022D000813209F052C08091E800877F8093E80046
:1022E00005C08091C004882309F447C08091E800AC
:1022F00082FFF7CF3091F1002091F1009091F10031
:102300008091F1003C8B2D8B9E8B8F8B8091F10007
:10231000888F8091F100898F8091F1008A8F809160
:10232000E8008B778093E8004BDBCE01DF91CF9103
:1023300075CF8091C104813201F58091E800877FDB
:102340008093E8003DDB8091C3049091C404998B95
:10235000888BCE01DF91CF9161CF8091C104813212
:1023600061F48091E800877F8093E80029DB609129
:10237000C304CE01DF91CF9151CFDF91CF9108956A
:10238000AA1BBB1B51E107C0AA1FBB1FA617B7079B
:1023900010F0A61BB70B881F991F5A95A9F78095B7
:1023A0009095BC01CD01089597FB072E16F400947B
:1023B00006D077FD08D0E4DF07FC05D03EF4909509
:1023C00081959F4F0895709561957F4F0895FC0109
:1023D00088279927E89421912032E9F3293010F0D9
:1023E0002E30C8F32B3239F02D3231F4689403C00B
:1023F0003ED0820F911D219120532A30C8F31EF444
:10240000909581959F4F089542E754E009C0FB01E4
:10241000DC018D91019080190110D9F3990B089579
:10242000FA01A191B081009719F41097E1F0CD0164
:10243000DC01CD010D90002011F4C00113C0FB019F
:102440002191222319F02015D9F7F3CFFB01219117
:10245000201519F41E92119606C02223C1F70D9083
:102460000020A1F7D001FA01A193B08308957AE08A
:10247000979F902D879F802D910D11240895F99994
:10248000FECF92BD81BDF89A992780B50895262F79
:10249000F999FECF92BD81BDF89A019700B402165A
:1024A00039F01FBA20BD0FB6F894FA9AF99A0FBE08
:0624B0000895F894FFCF2F
:1024B600640006049001811F007D14800C200390A7
:1024C60001060100010100811F0A2401900100019B
:1024D6000403FFFFFFFF00000100020003000400E9
:1024E600050006000700080009000A000B000C00A2
:1024F6000D000E000F001000110012001300140052
:10250600150016001700180019001A001B001C0001
:102516001D0032005E01010101320083100000013E
:102526000410000001820800000100000000000005
:102536000000000000646F6E650A0070696E670037
:1025460070696E670A0074696C740074696C740A49
:10255600006275696C64486F6D65006275696C64CC
:10256600486F6D650A006275696C64546F7000622D
:1025760075696C64546F700A006275696C644261B7
:1025860073655570006275696C6442617365557058
:102596000A006275696C645570006275696C6455F1
:1025A600700A00736875747465724F70656E007397
:1025B6006875747465724F70656E0A007368757419
:1025C600746572436C6F73650073687574746572B5
:1025D600436C6F73650A0073687574746572456E33
:1025E60061626C650073687574746572456E6162CC
:1025F6006C650A0073687574746572446973616208
:102606006C65007368757474657244697361626C95
:10261600650A007472696767657243616D0074725A
:10262600696767657243616D0A006265616D65720F
:10263600486F6D65006265616D6572546F7000204C
:10264600006275696C644C61796572006275696CCB
:10265600644C617965720A006275696C64426173E3
:10266600654C61796572006275696C644261736577
:102676004C617965720A0074696C7453706565649F
:102686000074696C7453706565640A0074696C74CF
:10269600416E676C650074696C74416E676C650A9F
:1026A6000074696C745265730074696C7452657356
:1026B6000A006275696C64537065656400627569C9
:1026C6006C6453706565640A006275696C64526572
:1026D60073006275696C645265730A006275696C91
:1026E600644D696E4D6F7665006275696C644D69FF
:1026F6006E4D6F76650A006275696C644D6F76651E
:10270600006275696C644D6F76650A007072696E59
:1027160074696E67466C6167007072696E74696E83
:1027260067466C61670A00736C69636500736C6960
:1027360063650A006E536C69636573006E536C695A
:102746006365730A0073687474724F706E50730019
:1027560073687474724F706E50730A007368747481
:1027660072436C735073007368747472436C735065
:04277600730A0000E2
:00000001FF
